:1039AA00D6A7B3D6BABAD7D6BFE23A0D0A002020B4
:1039BA00B5E3D5F3CFD4CABECAB5D1E9202000BE3B
:1039CA00A3D6DDD6B0D2B5BCBCCAF5D1A7D4BA202D
:1039DA00202020004B45592000BCBCC4DCB4F3C8ED
:1039EA00FC00D5E2CAC7B0B4BCFC32202000D5E244
:1039FA00CAC7B0B4BCFC31202000236B65792031E2
:103A0A0000BAECB5C600BAECB5C6BDFBD6B9CDA8AE
:103A1A00D0D000236B6579203200C2CCB5C600C273
:0C3A2A00CCB5C6D4CAD0EDCDA8D0D000D9
:1026E300440204000000004402080000000042020B
:0326F300020000E2
:104DE300438E80E4F589758ACD758CD4D28CD2A993
:034DF300D2AF221A
:03000B0002485652
:0D485600C0E0C0F0C083C082C0D075D008A3
:10486300900203E004F07006900202E004F090026C
:1048730004E0FCA3E0FDA3E0FEA3E02401FFE43E8B
:0D488300FEE43DFDE43CFC9002041213A590
:0B489000D0D0D082D083D0F0D0E03236
:101D0500E4900080F0A3F0A3F0A3F053B3DF43B455
:101D150020C2C5124DE3124D06124D277BFF7A39BD
:101D250079AA124C7A7BFF7A00798E124C7A122EA0
:101D35009B1236CA124A437BFF7A3979B87D017FF7
:101D4500011200037BFF7A3979C9122A8FD2C57F28
:101D5500D07E07124D66C2C520C6727F0A7E00126C
:101D65004D6620C6687BFF7A3979DE124C7A900081
:101D750083E004F07006900082E004F07F021243D5
:101D850011900082E0FEA3E0FF7C007D0212126D3F
:101D9500ED4C7BFF7A3979E37D017F037016123DA7
:101DA500BC7BFF7A3979EC122A8FD2A2D2C57F6427
:101DB5007E008014123DBC7BFF7A3979F8122A8F98
:101DC500C2A2D2C57F2C7E01124D66C2C590010DFF
:101DD500E064016003021E8B7B017A01790F124CCE
:101DE5009E7F0212431190008774FFF0A3743AF0AE
:101DF500A37404F0A3E4F0A37406F07B017A0179DF
:101E05000F123BD7EF701FD2C57F64FE124D66C21D
:101E1500C57BFF7A3A790B7D017F03123DBC7BFFC1
:101E25007A3A7910803E90008774FFF0A3743AF0F7
:101E3500A3741DF0A3E4F0A37406F07B017A017985
:101E45000F123BD7EF702BD2C57F64FE124D66C2D1
:101E5500C57BFF7A3A79247D017F03123DBC7BFF68
:101E65007A3A7929122A8FD2C57F647E00124D668F
:101E7500C2C57E007F287D007B017A01790E121391
:101E8500E2E490010DF09000E3E064016003021DBF
:101E95005D7B017A0079E5122A8F7E007F287D001F
:101EA5007B017A0079E41213E2E49000E3F0021D6D
:011EB5005DCF
:104A0D00EF64034E70028017EF64054E70040000D2
:104A1D00800DEF640A4E700B0000000000000000D6
:104A2D00000022E4FDFCC3ED9FEC9E5008000DBD7F
:054A3D0000010C80F1F6
:014A42002251
:044D6600AB07AA06E7
:104D6A00E4F583F582C3E5829BE5839A500A7F586E
:084D7A007E02124A0DA380ED38
:014D8200220E
:094E3700D2CAD2CBC2CBC2CA22FE
:094E4000C2CAC2CBD2CBD2CA22F5
:074C0000EFF0124E377F7840
:104C0700E4FEC2CAEF30E704D2CB8002C2CBEF2565
:104C1700E0FFD2CA0EEEB408E9C2CA7F037E0012D3
:044C27004A0DD2CA96
:014C2B002266
:104DCD009000CD124C00E4FF124C079000CDE0FF97
:064DDD00124C07024E40DB
:0C4CC200E0FBA3E0FAA3E0F91211F3FFFD
:104CCE009000CC124C007F40124C079000CCE0FFBD
:064CDE00124C07024E40DB
:1036CA00124E097FC87E00124D667FAE124DCD7F25
:1036DA00D5124DCD7F80124DCD7FA8124DCD7F1FC3
:1036EA00124DCD7FD3124DCDE4FF124DCD7FA112E5
:1036FA004DCD7FA6124DCD7F40124DCD7FB0124DDC
:10370A00CD7FD5124DCD7FF0124DCD7F8D124DCD8F
:10371A007F14124DCD7F20124DCD7F02124DCD7FE9
:10372A00C8124DCD7FA1124DCD7FDA124DCD7F0249
:10373A00124DCD7F81124DCD7FCF124DCD7FD91243
:10374A004DCD7FF1124DCD7FDB124DCD7F49124D0C
:06375A00CD7FAF024DCD52
:094B73009000BDE02FFFA3E0FD5E
:104B7C009000CCEDF0E014F01FEF24B0FF124DCDFF
:104B8C009000CCE0C4540F2410FF124DCD9000CCFB
:074B9C00E0540FFF024DCDB4
:104A4300E4900085F0900085E0FFC394085026EFC2
:104A530004FF7D01124B7CE4900084F0E4FF124CD0
:104A6300CE900084E004F0E0C3948040EF90008592
:054A7300E004F080D01A
:014A7800221B
:05431100900084EFF0B4
:1043160064016005E06402704B900084E01425E0BF
:10432600900086F0900084E075F002A4FF9000866D
:10433600E0FDC39FE5F06480F87480985026ED0494
:10434600FF7D01124B7CE4900085F0E4FF124CCE19
:10435600900085E004F0E0C3948040EF900086E092
:0443660004F080C01F
:01436A002230
:053EA00090033FEFF06C
:103EA50064016010E0FF6402600AEF64036005EFDF
:103EB50064047056E4900341F0900341E0FFC3941D
:103EC500085047EF04FF90033FE014C43354E0FD6E
:103ED500124B7C90033FE014C43354E0A3F09003ED
:103EE5003FE075F020A4FFA3E0D39FE5F06480F8E0
:103EF500748098500DE4FF124CCE900340E004F01E
:0A3F050080DC900341E004F080AF7F
:013F0F00228F
:083F10009002D9EFF0A3EDF0DF
:103F1800E4A3F0A3F09002DBE0FEA3E0FFC3940863
:103F2800EE64809480504EEF04FF7D01124B7CE4D8
:103F38009002DDF0A3F09002D9E0FF124CCE90027F
:103F4800DAE0FF124CCE9002DEE004F07006900238
:103F5800DDE004F0C39002DEE094409002DDE0640E
:103F680080948040D19002DCE004F070A89002DBDD
:053F7800E004F080A050
:013F7D002221
:103D4900900220EFF0A3EDF0A3EBF0A3EAF0A3E9D2
:013D5900F079
:103D5A00E4900227F0A3F0900227E0FEA3E0FFC35D
:103D6A009404EE9400504A900220124B76E490029A
:103D7A0025F0A3F0900222124CC2900223E475F0BF
:103D8A00011212A3900226E004F07006900225E0C8
:103D9A0004F0C3900226E09480900225E09400404B
:103DAA00D3900228E004F070AE900227E004F0807D
:013DBA00A662
:013DBB0022E5
:1044C2009002A1EFF0A3EDF0A3EBF0A3EAF0A3E9D1
:0144D200F0F9
:1044D300E49002A7F09002A7E0FFC39404502F904A
:1044E30002A1124B76E49002A6F09002A3124CC2F2
:1044F3009002A4E475F0011212A39002A6E004F066
:0E450300E0C3942040E49002A7E004F080C7DB
:014511002287
:10464F009002A8EFF0A3EDF0A3EBF0A3EAF0A3E93B
:01465F00F06A
:10466000E49002AEF09002A8E014124B78E49002BD
:10467000ADF09002AA124CC29002ABE475F00112A8
:1046800012A39002ADE004F0E0C3941040E4900265
:0A469000AEE004F0E0C3940240CB5A
:01469A0022FD
:104512009002AFEFF0A3EDF0A3EBF0A3EAF0A3E972
:01452200F0A8
:10452300E49002B5F09002B5E0FFC39402502F90DF
:1045330002AF124B76E49002B4F09002B1124CC277
:104543009002B2E475F0011212A39002B4E004F0F9
:0E455300E0C3940840E49002B5E004F080C795
:014561002237
:102465009000BDEEF0A3EFF09000C1EBF0A3EAF011
:0B247500A3E9F09000BFECF0A3EDF035
:10248000E49000C4F0A3F0D3ED947BEC94004015ED
:102490009000BFE4F0A304F09000BEE02402F090AE
:1024A00000BD02259D9000C1E0FBA3E0FAA3E0F986
:1024B000A3E0FEA3E0F5828E8312120CFFD39400FA
:1024C00050030225B5EF942050030225A4EFD394C6
:1024D0007E40030225A4EF24E0FEE434FF9000C612
:1024E000F0A3CEF0E49000CAF0A3F09000CAE0FEA2
:1024F000A3E0FFC39402EE94004003022585900000
:10250000BDA3E02FFFA3A3E0FD124B7CE49000C825
:10251000F0A3F09000C8E0FCA3E0FDC39408EC94A5
:10252000005051A3E0FEA3E07803C333CE33CED8EE
:10253000F92DFDEC3EFC9000C7E0C4F8540FC868CC
:10254000FF9000C6E0C454F048FE740D2FF582746D
:102550000B3EF583E5822DF582E5833CF583E4931C
:10256000FF124CCE9000C9E004F070A79000C8E0C4
:1025700004F0809F9000CBE004F070069000CAE069
:1025800004F00224EB9000C5E004F070069000C453
:10259000E004F09000C0E02408F09000BFE03400B8
:1025A000F00224A59000C5E004F070069000C4E09D
:0525B00004F00224A567
:0125B5002203
:102310009000BDEFF0A3EDF0A3EBF0A3EAF0A3E98A
:01232000F0CC
:10232100E49000C3F09000BFE0FBA3E0FAA3E0F962
:102331009000C3E0F58275830012120C7003022431
:1023410064E49000C2F09000C5F0A304F09000C2D4
:10235100E090008E93FFD3947E40529000BFE0FB4B
:10236100A3E0FAA3E0F99000C3E0FEF582758300D3
:1023710012120CFDEF6D702CEE2401FFE433FE8F81
:10238100828E8312120CFF9000C2E0FE90008F93A8
:10239100B50711EE75F010A4FF9000C5E5F0F0A3AC
:1023A100EFF080099000C2E02402F080A09000BE0E
:1023B100E0D394714009E4F09000BDE02402F09074
:1023C10000C5E07004A3E064016058E49000C4F02B
:1023D1009000C4E0FFC394025040124B73E490009C
:1023E100C2F09000C5E0FEA3E0242DF58274013E09
:1023F100F583E493FF124CCE9000C6E004F0700622
:102401009000C5E004F09000C2E004F0E0C3941035
:1024110040D09000C4E004F080B69000C3E02402F4
:10242100F08036E49000C4F09000C4E0FFC3940251
:102431005021124B73E49000C2F0E4FF124CCE9095
:1024410000C2E004F0E0C3941040EF9000C4E00447
:10245100F080D59000C3E004F09000BEE02410F0BD
:032461000223262D
:012464002255
:102F5C009000B4EFF0A3EDF0A3EBF0A3EAF0A3E93B
:012F6C00F074
:102F6D00E49000BCF09000B6E0FBA3E0FAA3E0F91A
:102F7D009000BCE0F58275830012120C70030230D4
:102F8D0018D3947E40429000BCE0FFF5827583001B
:102F9D0012120C9000B9F08F82758300A312120CDF
:102FAD009000BAF0E4A3F09000B4E0FFA3E0FD7B45
:102FBD00017A0079B91223109000B5E02410F09039
:102FCD0000BCE02402F0809D9000B6E0FBA3E0FA87
:102FDD00A3E0F99000BCE0F58275830012120C900D
:102FED0000B9F0E4A3F09000B4E0FF7E00A3E0FD93
:102FFD007C007B017A0079B91224659000B5E0243C
:0B300D0008F09000BCE004F0022F72FD
:013018002295
:03000300022F5C6D
:104E090043CA0443C90443CA0843C908D2CBD2CA16
:014E19002276
:103DBC00900084EFF0A3EDF0A3EBF0A3EAF0A3E9FD
:013DCC00F006
:103DCD009000B17401F0A37400F0A37489F07E002B
:103DDD007F127D007B017A0179851213E2900086B6
:103DED00E0F9A3E0FAA3E09000B4C9F0A3EAF0A3D0
:103DFD00E9F09000B1E0F9A3E0FAA3E09000B7C9B3
:103E0D00F0A3EAF0A3E9F07B017A0179851247C6A8
:103E1D00900084E0FFA3E0FD7B017A01798502002B
:013E2D000391
:104D8300535443313546324B363053320D0A556155
:0C4D930072743020496E6974210D0A0012
:1026F6004100E300602800E4000000000000000044
:1027060000000000000000000000000000000000C3
:1027160000000000000000000000000000000000B3
:042726004100E2018B
:104D0600439850438E40538EFEE4F589758BE875C3
:104D16008DFFD28ED2ACD2AF7BFF7A4D7983024C17
:014D26007A12
:0300230002436B2A
:0B436B00C0E0C083C082C0D075D00845
:10437600E4FF309841C298E599B40A04AF998036B3
:104386009000E2E0FF24E4F582E43400F583E59949
:10439600F074E42FF582E43400F583E09000E2B493
:1043A6000D11E09000E4F09000E37401F09000E25B
:0643B600F08003E004F0BA
:0943BC00D0D0D082D083D0E032D1
:0F4D9F00A3E475F0011212B9A9F0FA1211F3FF93
:084DAE008F993099FDC2992292
:0B489B009002F7EBF0A3EAF0A3E9F0B5
:1048A600A3ECF0A3EDF04C700E9002F7E0FBA3E052
:1048B600FAA3E0F9024C7A9002FAE07002A3E060F3
:1048C600189002F7E0FB124D9F9002FBE024FFF0E8
:0948D6009002FAE034FFF080DEEC
:0148DF0022B6
:104C7A00900084EBF0A3EAF0A3E9F0900084E0FB53
:104C8A00A3E0FAA3E0F91211F36008900084124D30
:044C9A009F80E822ED
:10318F009001B6EBF0A3EAF0A3E9F0A3ECF0A3ED06
:01319F00F03F
:1031A000E49001BDF0A3F0900204E0FCA3E0FDA3D5
:1031B000E0FEA3E0FF9001BF1213A530982190011B
:1031C000B6E0FBA3E0FAA3E0F99001BDE475F001DD
:1031D0001212B985F082F583E59912124BC29890CC
:1031E00001B9E0FEA3E0FF4E6018EF2401FFE43ECA
:1031F000FE9001BDE0B5060AA3E0B507059001B950
:10320000803B9001BFE0F8A3E0F9A3E0FAA3E0FB64
:10321000900204E0FCA3E0FDA3E0FEA3E0C39BFB5F
:10322000EE9AFAED99F9EC98F89001BBE0FEA3E074
:10323000FFE4FCFDD312133440819001BDE0FEA3F6
:02324000E0FFAD
:013242002269
:0E4E2900556172743320496E6974210D0A00C0
:10272A00C10A41010D006028010E000000000000EE
:10273A00000000000000000000000000000000008F
:10274A00000000000000000000000000000000007F
:06275A00000041010C012A
:104D270053BAFD75AC5075D5E875D4FF43D102432E
:104D3700D10843AF08D2AF7BFF7A4E7929024C7A6C
:03008B000241250A
:0B412500C0E0C083C082C0D075D0088D
:10413000E4FFE5AC30E04253ACFEE5ADB40A04AFB9
:10414000AD804090010CE0FF240EF582E43401F5CF
:1041500083E5ADF0740E2FF582E43401F583E09031
:10416000010CB40D11E090010EF090010D7401F0FE
:1041700090010CF08003E004F0E5AC30E10553ACB5
:03418000FDC20A73
:09418300D0D0D082D083D0E0320C
:0F4DB600A3E475F0011212B9A9F0FA1211F3FF7C
:084DC500200AFDD20A8FAD2285
:1042B4009002FCEBF0A3EAF0A3E9F0A3ECF0A3ED89
:1042C400F0B2C54C700E9002FCE0FBA3E0FAA3E050
:1042D400F9024C9E9002FFE07002A3E0602E90026F
:1042E400FCE0FB124DB69002FCE0FBA3E0FAA3E075
:1042F400F91211F3FF640D6013EF6010900300E0F6
:0D43040024FFF09002FFE034FFF080C8229B
:104C9E00900084EBF0A3EAF0A3E9F0900084E0FB2F
:104CAE00A3E0FAA3E0F91211F36008900084124D0C
:044CBE00B680E822B2
:1030D5009001C3EBF0A3EAF0A3E9F0A3ECF0A3EDB4
:0130E500F0FA
:1030E600E49001CAF0A3F0900204E0FCA3E0FDA383
:1030F600E0FEA3E0FF9001CC1213A5E5AC30E02280
:103106009001C3E0FBA3E0FAA3E0F99001CAE475DD
:10311600F0011212B985F082F583E5AD12124B5318
:10312600ACFE9001C6E0FEA3E0FF4E6018EF24015E
:10313600FFE43EFE9001CAE0B5060AA3E0B5070526
:103146009001C6803E9001CCE0F8A3E0F9A3E0FA36
:10315600A3E0FB900204E0FCA3E0FDA3E0FEA3E0F5
:10316600C39BFBEE9AFAED99F9EC98F89001C8E04A
:10317600FEA3E0FFE4FCFDD3121334500302310139
:083186009001CAE0FEA3E0FF86
:01318E00221E
:1027600060800000F8F80CC40CF8F00003070C08B7
:102770000C070300001018FCFC0000000008080F04
:102780000F0808000000000000000000000000002A
:102790000000000000000000000000000000000039
:1027A0000000000000000000000000000000000029
:1027B0000000000000000000000000000000000019
:1027C0000000000000000000000000000000000009
:1027D00000000000000000000000000000000000F9
:0427E00000000000F5
:104CE400AC07AF0574017E00A807088005C333CE66
:104CF40033CED8F9FFAD04EF5D60047F0180027FFD
:024D040000228B
:10388A00C374079FFD7F08E0FBA3E0FAA3E0F97E7B
:01389A00002D
:0B389B0090009CEEF0A3EFF0A3EDF016
:1038A600E4A3F0A3F0A3F09000A0F0A3F090009F93
:1038B600E0FFC007A3E0FEA3E0FF90009DE02FFF1E
:1038C60090009CE03E8F82F58312120CFF90009EC2
:1038D600E0FD124CE49000A0A3E0FEC374079EFE38
:1038E600EFA806088002C333D8FCFED0E04E900055
:1038F6009FF09000A1E004F070069000A0E004F0B4
:10390600C39000A1E094089000A0E06480948040F9
:063916009C90009FE0FF01
:01391C002288
:0B25B600900095EBF0A3EAF0A3E9F021
:1025C100E490009BF0F090009BE0FFC39408503F23
:1025D100C374079FFD900095E0FBA3E0FAA3E0F927
:1025E100E4FFFE12389B90009BE0FDC374079DFD44
:1025F100E49400FC900098E0FBA3E0FAA3E0F98DDD
:10260100828C83EF12124B90009BE004F080B7E4C0
:1026110090009BF090009BE0FFC394085036C37478
:10262100079FFD9000957F1012389190009BE0FD6F
:10263100C3740F9DFDE49400FC900098E0FBA3E0BF
:10264100FAA3E0F98D828C83EF12124B90009BE08C
:1026510004F080C0E490009BF090009BE0FFC394E5
:1026610008502F90009512388A90009BE0FDC374AA
:10267100179DFDE49400FC900098E0FBA3E0FAA311
:10268100E0F98D828C83EF12124B90009BE004F0F5
:1026910080C7E490009BF090009BE0FFC39408503A
:1026A10040C374079FFD900095E0FBA3E0FAA3E00F
:1026B100F97F187E0012389B90009BE0FDC3741FC8
:1026C1009DFDE49400FC900098E0FBA3E0FAA3E0F8
:1026D100F98D828C83EF12124B90009BE004F08005
:0126E100B642
:0126E20022D5
:05418C00900342EFF07A
:10419100EF5401F9A3E4F0A304F0900343E0FEA37C
:1041A100E0FFC39408EE648094805043E925E0F970
:1041B10074017E00A807088005C333CE33CED8F939
:1041C100FF900342E0FDE4FEEF5DFFA3A3E0FDEFFE
:1041D100A805088006CEA2E713CE13D8F849F990B6
:1041E1000344E004F070B3900343E004F080ABAF0C
:0141F10001CC
:0141F20022AA
:0B48E0009002DFEBF0A3EAF0A3E9F088
:1048EB00E4FC9002DFE0FBA3E0FAA3E0F98C827515
:1048FB00830012120CFF12418C9002E2E0FBA3E04A
:10490B00FAA3E0F98C82758300EF12124B0CECB416
:02491B0020D0AA
:01491D002277
:10473200E4900095F07F01FE900095E090008E934A
:10474200FDD3947E402F1211F3FCED6C701E90008D
:104752000112120CFD900095E090008F93B5050CAC
:10476200900095E075F010A4FFAEF022900095E065
:094772002402F080C37EFF7FFFEA
:01477B00221B
:0B391D009002E5EBF0A3EAF0A3E9F054
:10392800E4A3F0A3F0A3F09002E5E0FBA3E0FAA380
:10393800E0F9A3E0FFF58275830012120C60629033
:1039480002E5A3A3E07E002FF9EE3AFA124732907F
:1039580002E9EEF0A3EFF0F47002EEF4603A9002A0
:10396800E9E0FEA3E0242DF974013EFA7BFFC002D2
:10397800C0019002E8E0FFC31375F020A42400F909
:10398800740035F0FA9000987401F0A3EAF0A3E906
:10399800F0D001D0021225B69002E8E02402F080AF
:0139A8008698
:0139A90022FB
:0B359A00900095EBF0A3EAF0A3E9F02D
:1035A500E490009BF0F090009BE0FFC39408503F2F
:1035B500C374079FFD900095E0FBA3E0FAA3E0F933
:1035C500E4FFFE12389B90009BE0FDC374079DFD50
:1035D500E49400FC900098E0FBA3E0FAA3E0F98DE9
:1035E500828C83EF12124B90009BE004F080B7E4CD
:1035F50090009BF090009BE0FFC39408502F900033
:103605009512388A90009BE0FDC3740F9DFDE494EC
:1036150000FC900098E0FBA3E0FAA3E0F98D828C12
:0D36250083EF12124B90009BE004F080C771
:013632002275
:0B27ED0090008EEBF0A3EAF0A3E9F0EF
:1027F800E4A3F0FFFEA374FFF0A3740BF0A3740D21
:10280800F090008EE0FBA3E0FAA3E0F91211F3D3F5
:10281800947E4029124732EFF47002EEF4700302FE
:1028280028CE742D2FF974013EFA7BFF900098741E
:1028380001F0A37400F0A37400F00225B690008E96
:10284800E0FBA3E0FAA3E0F91211F324E090009171
:10285800F07E007F807D007B017A0079001213E210
:10286800900091E075F010A4FFA3E0FBA3E0FAA3A9
:10287800E02FF9EA35F0FA9000987401F0A374009B
:10288800F0A37400F012359A90008EE0FBA3E0FAF2
:10289800A3E0F990000112120C602B24E090009143
:1028A800F0E075F010A4FFA3E0FBA3E0FAA3E02F8B
:1028B800F9EA35F0FA9000987401F0A37400F0A3D7
:0628C8007410F012359AB5
:0128CE0022E7
:104DF6005391F343920C5393FB439404D282D29182
:034E0600D2902225
:102E9B00124DF6C282E4900084F07F09124D4DE48E
:102EAB00FF124D4D900084E004F0E0C3940440EA1F
:102EBB00D2827F0A7E00124A0DC282E4900084F017
:102ECB007F0A124D4D7F03124D4D900084E004F0AC
:102EDB00E0C3940440EAD2827F0A7E00124A0DC2FC
:102EEB0082E4900084F07F0B124D4D7F07124D4D05
:102EFB00900084E004F0E0C3940440EAD2827F0A9D
:102F0B007E00124A0DC282E4900084F07F0C124DB9
:102F1B004D7F01124D4D900084E004F0E0C394040A
:102F2B0040EAD2827F0A7E00124A0DC282E49000F0
:102F3B0084F07F0F124D4DE4FF124D4D900084E055
:102F4B0004F0E0C3940440EAD2827F0A7E00024A76
:012F5B000D68
:064D4700900094A3E0FFC0
:104D4D00C2827E08C291EF30E704D2908002C290F9
:084D5D00EF25E0FFD291DEEC2E
:014D6500222B
:08376000900092EEF0A3EFF0DF
:10376800A3E4F0A304F0C282E4900096F0A3F090E2
:103778000094A3E0FF124D4D900094A3E0FFA3A393
:10378800E0FE900092A3E0C39E75F008A42FF58296
:10379800E435F0F583E58224F7F582E58334FFF517
:1037A80083E0FF124D4D7F0A7E00124A0D9000976C
:1037B800E004F07006900096E004F0C3900097E0F3
:1037C8009404900096E0940040A5D282900095E081
:1037D80004F07006900094E004F0C3900095E09423
:0C37E80009900094E09400500302376E3A
:0137F40022B2
:081EB600900092EEF0A3EFF0A2
:101EBE00ED64014C6003021F8E900098F0A374082D
:101ECE00F0900094E4F0A304F0C282E4900096F047
:101EDE00A3F0124D47900094A3E0FFA3A3E0FE9061
:101EEE000092A3E0C39E75F008A42FF582E435F0AE
:101EFE00F583E58224F7F582E58334FFF583E0FF71
:101F0E00900098A3E0FEEFA806088002C313D8FC49
:101F1E00FF124D4D7F0A7E00124A0D900097E0048D
:101F2E00F07006900096E004F0C3900097E09404E1
:101F3E00900096E09400409AD282900095E004F0D2
:101F4E007006900094E004F0C3900095E094099020
:101F5E000094E094005003021ED77F1E7E00124DA7
:101F6E0066900099E024FFF0900098E034FFF0D3E3
:101F7E00A3E09400900098E094004003021ECF224C
:101F8E00E4900098F0A3F0900094E4F0A304F0C263
:101F9E0082E4900096F0A3F0124D47900094A3E0D7
:101FAE00FFA3A3E0FE900092A3E0C39E75F008A4E9
:101FBE002FF582E435F0F583E58224F7F582E5838B
:101FCE0034FFF583E0FF900098A3E0FEEFA806082B
:101FDE008002C333D8FCFF124D4D7F0A7E00124A99
:101FEE000D900097E004F07006900096E004F0C3A8
:101FFE00900097E09404900096E09400409AD2826C
:10200E00900095E004F07006900094E004F0C39008
:10201E000095E09409900094E094005003021F9DF7
:10202E007F1E7E00124D66900099E004F0700690BF
:10203E000098E004F0C3900099E09409900098E0B5
:07204E0094005003021F95EE
:012055002268
:1046E700EE75F004A42404FFE435F0FE7D2C7C0174
:1046F700900090ECF0A3EDF090008EEEF0A3EFF0B9
:104707007D017C00121EB690008EE0FEA3E0FF1232
:104717003760900090E0FEA3E0FF124D6690008E98
:0B472700E0FEA3E0FFE4FDFC021EB674
:104A7900E490034EF012000E90034FEFF0D3940828
:104A89005020E490034EF090034FE0C313FF9003CE
:104A99004EE0FEC39F500B1246E790034EE004F030
:024AA90080E5A6
:014AAB0022E8
:0B477C00900301EBF0A3EAF0A3E9F0CA
:10478700E4A3F012000E900305EFF0D39408502E27
:10479700900301E0FBA3E0FAA3E0F912391DE490CE
:1047A7000304F0900305E0C313FF900304E0FEC386
:0E47B7009F500B1246E7900304E004F080E5EB
:0147C50022D1
:0B28CF00900197EBF0A3EAF0A3E9F002
:1028DA00E4A3F0A3F0A3F012000E9001A5EEF0A37A
:1028EA00EFF0D39001A6E094009001A5E0648094F3
:1028FA008050030229AE90019BE075F008A4FF9076
:10290A000197E0FBA3E0FAA3E02FF9EA35F0FA1207
:10291A00000E90019AEFF0D3940840047F088007D4
:10292A0090019AE05407FF90019AEFF0A3E075F046
:10293A0008A4FF900197E0FBA3E0FAA3E02FF9EACD
:10294A0035F0FA900091EBF0A3EAF0A3E9F09001D8
:10295A009AE0FF900094E4F0A3EFF07B017A01790A
:10296A009D1240BD7B017A01799D12391DE49001C7
:10297A009CF090019AE0C313FF90019CE0FEC39F74
:10298A00500B1246E790019CE004F080E590019B11
:10299A00E004F09001A6E024F8F09001A5E034FFED
:0429AA00F00228EC23
:0129AE002206
:10491E00900345EBF0A3EAF0A3E9F0900345E0FB2A
:10492E00A3E0FAA3E0F912000ED3EF9402EE648036
:10493E0094805019900345E0FBA3E0FAA3E0F9122E
:0E494E0027ED7D2C7C017F047E001246F722AF
:0B2A8F00900084EBF0A3EAF0A3E9F054
:102A9A00E4A3F0A3F0A3F012000E90008CEEF0A3D2
:102AAA00EFF0D390008DE0940090008CE064809465
:102ABA00805003022B6A900088E075F002A4FF9010
:102ACA000084E0FBA3E0FAA3E02FF9EA35F0FA125A
:102ADA00000E900087EFF0C3940240047F02800743
:102AEA00900087E05401FF900087EFF07E007F029C
:102AFA007D007B017A00798A1213E2900088E075E2
:102B0A00F002A4FF900084E0FBA3E0FAA3E02FF90F
:102B1A00EA35F0FA900091EBF0A3EAF0A3E9F0901D
:102B2A000087E0FF900094E4F0A3EFF07B017A00C5
:102B3A00798A1240BD7B017A00798A1227ED7D2CB1
:102B4A007C017F047E001246F7900088E004F09032
:102B5A00008DE024FEF090008CE034FFF0022AACF5
:012B6A002248
:104C2C004572723A0020202020202020302E303077
:104C3C000000000000000000000000000000000068
:074C4C000000000000000061
:0827E40041016F0141016E018A
:0B21B500900271EBF0A3EAF0A3E9F048
:1021C000E4A3F0A31213B100000000E4900274F045
:1021D000900274E0FFC394055035900271E0FBA3B8
:1021E000E0FAA3E0F98F8275830012120CFF124E01
:1021F0001A900271E0FBA3E0FAA3E0F9A3E0F582F4
:10220000758300EF12124B900274E004F080C190CD
:102210000271E0FBA3E0FAA3E0F91211F3FFE4FC82
:10222000FDFE90023D1213A59002417401F0A374CB
:1022300002F0A37475F07D157F07122C4090027197
:10224000E0FBA3E0FAA3E0F990000112120CFFE416
:10225000FCFDFE90023D1213A59002417401F0A313
:102260007402F0A37475F07D117F04122C4090026B
:1022700071E0FBA3E0FAA3E0F990000212120CFF58
:10228000E4FCFDFE90023D1213A59002417401F0A2
:10229000A37402F0A37475F07D0C7F05122C40909E
:1022A0000271E0FBA3E0FAA3E0F990000312120C24
:1022B000FFE4FCFDFE90023D1213A5900241740163
:1022C000F0A37402F0A37475F07D067F06122C4013
:1022D000900271E0FBA3E0FAA3E0F990000412126F
:1022E0000CFFE4FCFDFE90023D1213A59002417428
:1022F00001F0A37402F0A37475F0E4FD7F06122CC4
:0F23000040900275E0FCA3E0FDA3E0FEA3E0FF28
:01230F0022AB
:0632F2009003331213A546
:1032F800900333E0FCA3E0FDA3E0FEA3E0FF90020F
:10330800ED1213A57D157F071243C5900155EFF007
:10331800900333E0FCA3E0FDA3E0FEA3E0FF9002EE
:10332800ED1213A57D117F041243C5900156EFF0ED
:10333800900333E0FCA3E0FDA3E0FEA3E0FF9002CE
:10334800ED1213A57D0C7F051243C5900157EFF0D0
:10335800900333E0FCA3E0FDA3E0FEA3E0FF9002AE
:10336800ED1213A57D067F061243C5900158EFF0B4
:10337800900333E0FCA3E0FDA3E0FEA3E0FF90028E
:10338800ED1213A5E4FD7F061243C5900159EFF035
:063398007B017A0179556A
:01339E00220C
:104BD200E4FEC374039E75F008A4FDEFA8050880E7
:104BE20002C313D8FCFD745A2EF582E43401F58316
:0D4BF200EDF00EEEB404DB7B017A01795A80
:014BFF002293
:0B324300900229EBF0A3EAF0A3E9F0F1
:10324E001211F3FC90022CE0FBA3E0FAA3E0F912BA
:10325E0011F3FE90022FE07036EC540F900231F015
:10326E00900230E07010EE540FFFEC54F04FFCEE75
:10327E0054F0FFA3804DEEC4540FFFEC54F04FFCFE
:10328E00900231E0C454F0FFEE540F4FFE8037EC45
:10329E0054F0900231F0900230E07017EEC454F00A
:1032AE00FFEC540F4FFCA3E0C4540FFFEE54F04F4D
:1032BE00FE8013EE54F0FFEC540F4FFCEE540FFF54
:1032CE00900231E04FFE900229E0FBA3E0FAA3E06A
:1032DE00F9EC12123990022CE0FBA3E0FAA3E0F90C
:0432EE00EE021239A1
:0E2DD700900232EBF0A3EAF0A3E9F0A3EDF0D6
:102DE500E4FD900236E0FEEDC39E4003022E9A906C
:102DF5000232E0FBA3E0FAA3E0F9900238EBF0A37E
:102E0500EAF0A3E9F01211F35480900237F0E0C420
:102E15001313135401F0E4FF900235E0FEEFC39E57
:102E2500506FEE14900238B50729E0FBA3E0FAA332
:102E3500E0F91211F325E0121239900238E0FBA3F4
:102E4500E0FAA3E0F91211F3FE900237E04E1212F8
:102E550039803BE0FBA3E0FAA3E0F99000011212F0
:102E65000C5480C41313135401FE1211F325E01200
:102E75001239900238E0FBA3E0FAA3E0F91211F34E
:102E85004E121239900239E475F0011212A30F8027
:052E9500870D022DE78E
:012E9A002215
:0E30190090020CEBF0A3EAF0A3E9F0A3EDF0B7
:10302700E4FC900210E0FFECC39F40030230D49011
:10303700020CE0F9A3E0FAA3E0900213C9F0A3EAB7
:10304700F0A3E9F0900213E0FBA3E0FAA3E0F99004
:10305700020FE0FF7E00E92FF9EE3AFA90FFFF1228
:10306700120C5401900212F0E0C43333335480F051
:10307700E4FF90020FE0FEEFC39E504D900213E075
:10308700FBA3E0FAA3E0F91211F3FE540190021139
:10309700F0E0C43333335480F0EEC3131212399087
:1030A7000213E0FBA3E0FAA3E0F91211F3FE90028A
:1030B70012E04E121239900214E475F0011212A3B5
:0D30C700900211E0A3F00F80A90C02302947
:0130D40022D9
:0E499A00900306EFF0A3EBF0A3EAF0A3E9F020
:1049A800E4FFFE900306E0FDEFC39D501DA3E0FB6E
:1049B800A3E0FAA3E0F98F8275830012120CFD9030
:0C49C800030AE0B505010E0F80D9AF0610
:0149D40022C0
:0B4BA30090030CEBF0A3EAF0A3E9F094
:104BAE00E4FEEEC39F501C90030FE0FD90030CE05B
:104BBE00FBA3E0FAA3E0F98E82758300ED12124B8F
:034BCE000E80DF77
:014BD10022C1
:0B495C009002B7EBF0A3EAF0A3E9F033
:10496700E4FEEEC39F502B9002B7E0FBA3E0FAA34F
:10497700E0F98E8275830012120CFD9002BAE0FBFB
:10498700A3E0FAA3E0F98E82758300ED12124B0EB5
:0249970080D0CE
:0149990022FB
:0E002600900279EFF0A3EBF0A3EAF0A3E9F06B
:10003400E4900280F0F0900279E0FF900280E0FE0C
:10004400C39F5040EEFD90027AE0FBA3E0FAA3E0E8
:100054007E002FF9EE3AFAC3E99DF9EA9400FA908A
:10006400FFFF12120CFF90027DE0FBA3E0FAA3E075
:10007400F9A3E0F582758300EF12124B900280E041
:0400840004F080B252
:010088002255
:0B4810009002BEEBF0A3EAF0A3E9F079
:10481B00E4FEEEC39F50319002C1E0FBA3E0FAA38C
:10482B00E0F98E8275830012120CFD9002BEE0FB44
:10483B00A3E0FAA3E0F98E8275830012120C6D606F
:0A484B0004EE04FF220E80CA7F0075
:014855002240
:0E3F7E00900281EFF0A3EBF0A3EAF0A3E9F0CC
:103F8C00E4900288F0F0900281E0FF900288E0FE5D
:103F9C00C39F5049EEFD900285E0FBA3E0FAA3E03D
:103FAC007E002FF9EE3AFAC3E99DF9EA9400FA90F3
:103FBC00FFFF12120CFF900282E0FBA3E0FAA3E0D9
:103FCC00F9900288E0FEF58275830012120C6F6086
:0F3FDC0004EE04FF22900288E004F080A97F0029
:013FEB0022B3
:06469B009003101213A5AC
:1046A100E4900314F0F0900314E0F9C39420503324
:1046B100900310E0FCA3E0FDA3E0FEA3E0FFA8014E
:1046C100121345EF5401FFE4FEFDFCFBFAF9F8C3B8
:1046D1001213347006900314E0FF22900314E004D7
:0546E100F080C37FFF23
:0146E60022B1
:064602009003151213A540
:10460800E4900319F0F0900319E0F9C394205034B2
:10461800900315E0FCA3E0FDA3E0FEA3E0FFA801E2
:10462800121345EF5401FFE4FEFDFC7B01FAF9F893
:10463800C31213347006900319E0FF22900319E0A7
:0646480004F080C27FFFB8
:01464E002249
:1045620090031AEFF0A3E0F8A3E0F9A3E0FAA3E0C6
:10457200FBC000C001C002C00390031AE0FF740137
:104582007E00A807088005C333CE33CED8F9FFEEEC
:104592003395E0FDFCD003D002D001D000EB4FFFF9
:1045A200EA4EFEE94DFDE84CFC90031B1213A522D6
:10446F0090031FEFF0A3E0F8A3E0F9A3E0FAA3E0B5
:10447F00FBC000C001C002C00390031FE0FF740126
:10448F007E00A807088005C333CE33CED8F9F4FFDA
:10449F00EEF4FE3395E0FDFCD003D002D001D00046
:1044AF00EB5FFFEA5EFEE95DFDE85CFC9003201226
:0344BF0013A52220
:1043C5009002ECEDF074017E00A807088005C33368
:1043D500CE33CED8F924FFFFEE34FFFE3395E0FD52
:1043E500FCC004C005C006C0079002EDE0FCA3E0D8
:1043F500FDA3E0FEA3E0FF9002ECE0F9F8121345FF
:10440500D003D002D001D000EF5BFFEE5AFEED598C
:05441500FDEC58FC2243
:102C400090023CEDF02FFF74FFFEA807088005C33B
:102C500033CE33CED8F9FFEE3395E0FDFC90024140
:102C6000E0FBA3E0FAA3E0F9121385EF5BFFEE5A55
:102C7000FEED59FDEC58FCC004C005C006C007902D
:102C8000023DE0FCA3E0FDA3E0FEA3E0FF90023CD8
:102C9000E0F9F8121358D003D002D001D000EF2B86
:102CA000FFEE3AFEED39FDEC38FCC004C005C0066D
:102CB000C007E0FF74017E00A807088005C333CE7B
:102CC00033CED8F924FFFFEE34FFFE3395E0FDFC50
:102CD000900241E0FBA3E0FAA3E0F9121385EF5B59
:102CE000FFEE5AFEED59FDEC58FCD003D002D001A6
:102CF000D000EB2FFFEA3EFEE93DFDE83CFC9002F0
:0D2D000041E0FBA3E0FAA3E0F912136B22FF
:0E339F00900244EFF0A3EBF0A3EAF0A3E9F0F4
:1033AD00E4A3F0A31213B100000000E4900248F072
:1033BD00900244E0FF900248E0C39F5073A3E0F8F1
:1033CD00A3E0F9A3E0FAA3E0FBC000C001C002C076
:1033DD0003900245E0FBA3E0FAA3E0F9A3E0F58238
:1033ED0075830012120CFF7E00900248E0FD9002E2
:1033FD0044E0C39D1475F008A4FDEFA805088005F1
:10340D00C333CE33CED8F9FFEE3395E0FDFCD003B8
:10341D00D002D001D000EB4FFFEA4EFEE94DFDE8A2
:10342D004CFC9002491213A5900248E004F08080F4
:0E343D00900249E0FCA3E0FDA3E0FEA3E0FF47
:01344B00225E
:0541F30090024DEFF009
:1041F800E4900255F0F090024DE0FF900255E0C3C4
:104208009F504AE0FF7C007B01244EF9EC3402FA0F
:104218001211F3FEEFFD900252E0FBA3E0FAA3E0D7
:10422800F990024DE0F582758300E92582F9E5836E
:104238003AFAE924FFF9EA34FFFAC3E99DF9EA9C5E
:0D424800FAEE121239900255E004F080A940
:014255002246
:104B4200E4FEEEC39F5029EEFD7B01C3748D9DF9F7
:104B520074029400FA1211F3FD90028EE0FBA3E0BE
:104B6200FAA3E0F98E82758300ED12124B0E80D209
:014B72002220
:0B4AAC00900324EBF0A3EAF0A3E9F074
:104AB700E4FFAE05900328E0FDEED39D5018900368
:104AC70024E0FBA3E0FAA3E0F98E827583001212BB
:064AD7000C6FFF0E80DEF3
:014ADD0022B6
:0E2B6B00900256EFF0A3EBF0A3EAF0A3E9F01E
:102B7900E4A3F0A31213B100000000900257E0FB98
:102B8900A3E0FAA3E0F9900256E0FF7E00E92FF9ED
:102B9900EE3AFA90FFFF12120CFFE4FCFD90025B83
:102BA9001213A5E490025AF0900256E0FF90025ADF
:102BB900E0C39F5073A3E0F8A3E0F9A3E0FAA3E010
:102BC900FBC000C001C002C003900257E0FBA3E0B4
:102BD900FAA3E0F9A3E0F58275830012120CFF7ED7
:102BE9000090025AE0FD900256E0C39D1475F0086A
:102BF900A4FDEFA805088005C333CE33CED8F9FF6D
:102C0900EE3395E0FDFCD003D002D001D000EB4FAC
:102C1900FFEA4EFEE94DFDE84CFC90025B1213A55C
:102C290090025AE004F0808090025BE0FCA3E0FD92
:062C3900A3E0FEA3E0FF92
:012C3F002272
:053A360090025FEFF0BB
:103A3B00E4900267F0EF14F0900267E0FFC364803C
:103A4B009480407290025FE0149F75F008A4FF749D
:103A5B00FF7E00A807088005C333CE33CED8F9FF0D
:103A6B00EE3395E0FDFC900260E0F8A3E0F9A3E0F3
:103A7B00FAA3E05FFFEA5EFEE95DFDE85CFC900205
:103A8B005FE014FB900267E0FAC3EB9A75F008A4B1
:103A9B00F9F8121345900264E0FBA3E0FAA3E0F9F6
:103AAB00A3E0FD3395E08D82F583EF12124B90026C
:063ABB0067E014F08082B8
:013AC10022E2
:0E344C009002C4EFF0A3EBF0A3EAF0A3E9F0C6
:10345A00E4FF9002C4E0FEEFC39E5071A3E0FBA319
:10346A00E0FAA3E0F98F8275830012120CFEC454AD
:10347A000FFDEE540FFEEDD39409ED40052437FD00
:10348A0080032430FD9002C8E0FBA3E0FAA3E0F930
:10349A0075F002EFA4F58285F083ED12124BEED39C
:1034AA009409EE40052437FE80032430FE9002C8BA
:1034BA00E0FBA3E0FAA3E0F975F002EFA42401F51A
:1034CA0082E435F0F583EE12124B0F80859002C824
:1034DA00E0FBA3E0FAA3E0F99002C4E075F002A4CD
:0934EA00F58285F083E402124B27
:103E2E00900268EFF0A3EDF0A3EBF0A3EAF0A3E9A4
:013E3E00F093
:103E3F00E4900270F0F0900269E0FF900270E0FEF3
:103E4F00C39F504190026DE0FBA3E0FAA3E0F98E0F
:103E5F008275830012120CFF90026AE0FBA3E0FA56
:103E6F00A3E0F9900268E0FD7C00E92DF9EC3AFA45
:103E7F00900270E029F9EC3AFAEF121239900270C1
:103E8F00E004F080B190026AE0FBA3E0FAA3E0F94E
:013E9F002200
:103633009001D01213A59001D4EBF0A3EAF0A3E913
:01364300F096
:1036440078D77C017D017BFF7A4C793D7E007F0237
:103654001211CD9001D4E0F9A3E0FAA3E09002BAEC
:10366400C9F0A3EAF0A3E9F07BFF7A4C792C7F043C
:1036740012495C90027D7401F0A37401F0A374D725
:10368400F07B017A0179D07F021200269002C8747F
:1036940001F0A37401F0A374D9F07B017A0179D706
:1036A4007F0212344C90026D7401F0A37401F0A3F4
:1036B40074D9F09001D4E0FBA3E0FAA3E0F97D040F
:0536C4007F04123E2E00
:0136C90022DE
:0E3CD400900329EFF0A3EBF0A3EAF0A3E9F0D0
:103CE200E4FFFE900329E0FDEFC39D501CA3E0FB1F
:103CF200A3E0FAA3E0F98F8275830012120CFD9003
:103D0200032DE06D60030F80DAAE07900329E0FD1A
:103D1200EFC39D502FA3E0FBA3E0FAA3E0F9EFFD70
:103D22007C00E92DF9EC3AFA90000112120CFD9098
:103D3200032AA3E0FAA3E0F98F82758300ED121241
:063D42004B0F80C7AF0625
:013D48002258
:0B425600900216EFF0A3EDF0A3EBF0D8
:10426100781C7C027D017BFF7A4C793F7E007F04C4
:104271001211CD900216E0FFA3E0FD900219E0F9C2
:10428100A3E0FAA3E0900173C9F0A3EAF0A3E9F077
:10429100A37401F0A37402F0A3741CF0900218E05F
:1042A100FB12185C900217E0FF7B017A02791C1265
:0242B1002B6B75
:0142B30022E8
:0B185C00900170EFF0A3EDF0A3EBF0A3
:1018670078797C017D017BFF7A4C79437E007F0884
:101877001211CDE4900182F0900170E0FF90018297
:10188700E0C39F4003021A3CE4FDFC900181F09005
:101897000181E0F9C39408503F747929F582E43453
:1018A70001F583E075F00AA4FF900183E5F0F0A34A
:1018B700EFF0E02DF0900183E03CF0E0FEA3E0FDC7
:1018C700747929F582E43401F583EDF0EEFD7C00AF
:1018D700900181E004F080B7900173E0FBA3E0FA88
:1018E700A3E0F9900182E0F58275830012120CFFE4
:1018F7007E00900183EEF0A3EFF054F0FF90018398
:10190700EEF0A3EFF0900183E0C4F854F0C868FE4E
:10191700A3E0C4540F48FF900183EEF0A3EFF0ACAF
:1019270006FDE4900181F0900181E0F9C39408502D
:1019370036747929F582E43401F583E02DFEE43C21
:10194700900183F0A3CEF0900183E0FEA3E0FD7445
:101957007929F582E43401F583EDF0EEFD7C009002
:101967000181E004F080C0E4FCFD900181F090016A
:1019770081E0F9C39408503F747929F582E4340172
:10198700F583E075F00AA4FF900183E5F0F0A3EF7B
:10199700F0E02DF0900183E03CF0E0FEA3E0FD7461
:1019A7007929F582E43401F583EDF0EEFD7C0090B2
:1019B7000181E004F080B7900173E0FBA3E0FAA394
:1019C700E0F9900182E0F58275830012120CFF7E28
:1019D70000900183EEF0A3EFF0540FFF900183EE28
:1019E700F0A3EFF07C00FDE4900181F0900181E02D
:1019F700F9C394085036747929F582E43401F583E4
:101A0700E02DFEE43C900183F0A3CEF0900183E04B
:101A1700FEA3E0FD747929F582E43401F583EDF046
:101A2700EEFD7C00900181E004F080C0900182E02F
:101A370004F002187F900172E0603BE4900181F0AE
:101A4700900171E0FF900181E0FEC39F50717479AE
:101A57002EF582E43401F583E0FF900176E0FBA3E5
:101A6700E0FAA3E0F98E82758300EF12124B900122
:101A770081E004F080CAE4900181F0900171E0FFF9
:101A8700900181E0FEC39F5036EEFDC3EF9DFFE45A
:101A97009400FE74782FF58274013EF583E0FF9081
:101AA7000176E0FBA3E0FAA3E0F9900181E0F5827B
:0F1AB700758300EF12124B900181E004F080BCA8
:011AC60022FD
:103FEC00E49002D1F0EF540FFEEF54F0C4540FFCE8
:103FFC00ED540FFFED54F0C4540FFDEE2F2BFFD3F7
:10400C009409400474062FFFEF540FFEEFC4540FB5
:10401C00FFEC2D2FFFD39409400474062FFFAC073F
:10402C00ECC454F0FCEFC4540F60047F0180027F99
:10403C00009002D1EFF0EC4EFE9002CEE0FBA3E03C
:08404C00FAA3E0F9EE121239AB
:014054002249
:062056009001361213A5F3
:10205C0090013F1213B100000000900143E4F0A383
:10206C00F0A3F090014904F0A37401F0A3743FF0C5
:10207C00E4A3F0784D7C017D017BFF7A4C794BFE1B
:10208C007F081211CD900136E0FCA3E0FDA3E0FE29
:10209C00A3E0FF90013F1213A5E4900146F09001DC
:1020AC0049E0FBA3E0FAA3E0F990000712120C3010
:1020BC00E7047F0180027F0090014CEFF090013F1C
:1020CC00E0FCA3E0FDA3E0FEA3E0FF7801121358AF
:1020DC0090013F1213A5E4900147F0900147E0FEF8
:1020EC00244DF582E43401F583E0FDFF744D2EF9A7
:1020FC00E43401FA9002CE7401F0A3EAF0A3E9F003
:10210C0090014CE0FB123FEC90014CEFF09001473A
:10211C00E004F0E0C3940840C2900146E004F0E013
:10212C00C3944050030220AA90013AE0900148F079
:10213C00D3940840037408F090013CE0F9A3E0FA52
:10214C00A3E0900143C9F0A3EAF0A3E9F0E4A3F003
:10215C00900148E0FF900146E0FEC39F504A900179
:10216C003BE07014EEFDC3EF9DFFE49400FE744C55
:10217C002FF58274013E800B900146E0244DF582D0
:10218C00E43401F583E0FF900143E0FBA3E0FAA304
:10219C00E0F9EF121239900146E004F0900144E4AA
:0821AC0075F0011212A380A8D6
:0121B4002208
:0A4055009001DEEDF0A3EBF0AA07E6
:10405F009001E61213B100000000AF0290027D74D0
:10406F0001F0A37401F0A374E6F09001E0E0FBA36C
:10407F00E0FAA3E0F91200269001E6E0FCA3E0FDD0
:10408F00A3E0FEA3E0FF9001DEE090013AF0900183
:10409F00DFE090013BF09001E3E0F9A3E0FAA3E049
:0E40AF0090013CC9F0A3EAF0A3E9F00220560C
:0F4E1A00EFC4540F75F00AA4FEEF540F2EFF22C1
:0E29AF009001F7EFF0A3EBF0A3EAF0A3E9F03C
:1029BD00E4A3F09001FE1213B100000000E49001B9
:1029CD00FBF09001F7E0FF9001FBE0FEC39F400399
:1029DD00022A809001F8E0FBA3E0FAA3E0F98E82D1
:1029ED0075830012120CFFC4540FFE9001FCF0EF22
:1029FD00540FA3F0EED394095005E094094006E47A
:102A0D00FFFEFDFC22E47F64FEFDFC9001FEE0F87C
:102A1D00A3E0F9A3E0FAA3E0FB1212CFA804A905E5
:102A2D00AA06AB079001FCE075F00AA4FFE4FCFDDB
:102A3D00EB2FFFEA35F0FEED39FDEC38FC9001FE91
:102A4D001213A59001FEE0F8A3E0F9A3E0FAA3E0CC
:102A5D00FB9001FDE0FFE4FCFDFEEB2FFFEE3AFEE7
:102A6D00ED39FDEC38FCA31213A59001FBE004F049
:102A7D000229CF9001FEE0FCA3E0FDA3E0FEA3E060
:012A8D00FF49
:012A8E002225
:0E1AC7009001A7EBF0A3EAF0A3E9F0A3EDF085
:101AD500E4A3F0A3F0A3F0A31213B100000000905B
:101AE50001B21213B100000000E49001ABF09001C7
:101AF500A7E0FBA3E0FAA3E0F99001ABE0F582755E
:101B0500830012120C6013642E600F9001ABE00489
:101B1500A3F09001ABE004F080D4E49001ABF09029
:101B250001ACE0FF9001ABE0FEC39F4003021BC187
:101B35009001A7E0FBA3E0FAA3E0F98E827583008C
:101B450012120C60779001AEE0FCA3E0FDA3E0FE6D
:101B5500A3E0FFE47B0AFAF9F81212CF9001AE1266
:101B650013A59001AEE0F8A3E0F9A3E0FAA3E0FB2A
:101B7500C000C001C002C0039001A7E0FBA3E0FACA
:101B8500A3E0F99001ABE0F58275830012120C24F5
:101B9500D0FFE434FFFEE4FCFDD003D002D001D039
:101BA50000EB2FFFEA3EFEED39FDEC38FC9001AE6F
:101BB5001213A59001ABE004F0021B24E49001ABE5
:101BC500F09001AAE0FFA3E0C39F5022E004F0904B
:101BD50001AEE0FCA3E0FDA3E0FEA3E0FFE47B0A89
:101BE500FAF9F81212CF9001AE1213A580D3900125
:101BF500A7E0FBA3E0FAA3E0F912000E9001ACE028
:101C0500FEC3EF9E14A3F0E49001ABF09001ADE0AC
:101C15007003021CDE9001AAE0FFA3E0FEC39F4013
:101C250003021CDEA3E02401FDE433FCEE7E002D5F
:101C3500FFEE3CFE9001A7E0FBA3E0FAA3E0F98FDD
:101C4500828E8312120C60609001B2E0F8A3E0F975
:101C5500A3E0FAA3E0FBC000C001C002C0039001ED
:101C6500ACE02401FFE433FE9001ABE07C002FFFE4
:101C7500EC3EFE9001A7E0FBA3E0FAA3E0F98F821A
:101C85008E8312120C24D0FFE434FFFEE4FDD00352
:101C9500D002D001D000EB2FFFEA3EFEED39FDEC7E
:101CA50038FC9001B21213A59001AAE014FFA3E03D
:101CB5006F60269001B2E0FCA3E0FDA3E0FEA3E087
:101CC500FFE47B0AFAF9F81212CF9001B21213A5BC
:101CD5009001ABE004F0021C119001B2E0FCA3E01E
:101CE500FDA3E0FEA3E0FF9001AEE0F8A3E0F9A3B9
:0F1CF500E0FAA3E02FFFEA3EFEE93DFDE83CFCEC
:011D040022BC
:0E34F3009002D2EFF0A3EBF0A3EAF0A3E9F011
:10350100E4FF9002D2E0FEEFC39E5071A3E0FBA363
:10351100E0FAA3E0F98F8275830012120CFEC45405
:103521000FFDEE540FFEEDD39409ED40052437FD58
:1035310080032430FD9002D6E0FBA3E0FAA3E0F97A
:1035410075F002EFA4F58285F083ED12124BEED3F4
:103551009409EE40052437FE80032430FE9002D604
:10356100E0FBA3E0FAA3E0F975F002EFA42401F572
:1035710082E435F0F583EE12124B0F80859002D66E
:10358100E0FBA3E0FAA3E0F99002D2E075F002A417
:09359100F58285F083E402124B7F
:0E3B4E00900337EFF0A3EBF0A3EAF0A3E9F049
:103B5C00E4FF900337E0FEEFC39E5057A3E0FBA3B6
:103B6C00E0FAA3E0F98F8275830012120CFEC454A4
:103B7C000FFDEE540FFEEDD39409ED40052437FDF7
:103B8C0080032430FDEF25E0245EF582E43401F55A
:103B9C0083EDF0EED39409EE40052437FE80032428
:103BAC0030FEEF25E0245FF582E43401F583EEF07E
:103BBC000F809F900337E025E0245EF582E434010A
:0A3BCC00F583E4F07B017A01795ED5
:013BD60022CC
:062D0D009001EA1213A57B
:102D1300E49001EEF0F99001F4C9F0A3F0A3E9F017
:102D230090016EE060319001EAE0FCA3E0FDA3E0D6
:102D3300FEA3E0FF90013A7405F0E4A3F07B01A346
:102D430004F0A37401F0A374EFF01220567B017A10
:102D53000179EF7F05802190027D7401F0A3740156
:102D6300F0A374EFF07B017A0179EA7F0412002665
:102D73007B017A0179EF7F04123B4E9001F4EBF073
:102D8300A3EAF0A3E9F090016FE06032E49001EE72
:102D9300F09001F4E0FBA3E0FAA3E0F99001EEE088
:102DA300FFF58275830012120CB430128F82758383
:102DB30000742012124B9001EEE004F080D39001D6
:102DC3006F7401F090016EF09001F4E0FBA3E0FA60
:032DD300A3E0F981
:012DD60022DA
:0537F500900291EFF0CD
:1037FA00A3E0FCA3E0FDA3E0FEA3E0FF122D0D90E1
:10380A000296EBF0A3EAF0A3E9F0900291E060647B
:10381A00E4FFFEFDFCA3E0F8A3E0F9A3E0FAA3E0CD
:10382A00FBC312133470077BFF7A4C793122900262
:10383A0091E0FF04FD900296E0FBA3E0FAA3E024E6
:10384A000AF9E43AFAC3E99FF9EA9400FA7F011205
:10385A0045B2900291E0FFC3740A9FFFE49400FE10
:10386A00900296E0FBA3E0FAA3E0F98F828E8374BC
:0F387A002E12124B900296E0FBA3E0FAA3E0F9A6
:01388900221C
:0E45B20090032EEFF0A3EBF0A3EAF0A3E9F0E4
:1045C000E4A3F0EDF0900332E0FFD394004032908A
:1045D000032FE0FBA3E0FAA3E07E002FF9EE3AFA06
:1045E00090FFFF12120CFF90032EE07C0029F9ECE3
:1045F0003AFA90FFFFEF12124B900332E014F08072
:01460000C4F5
:014601002296
:103C5E009002F2EDF0A3EBF0A3EAF0A3E9F09002EC
:033C6E00F1EFF083
:103C7100E49002F6F0EFF09002F1E0FFA3E02FFFF5
:103C8100E433FE9002F6E0C39FEE6480F8748098FE
:103C910050409002F3E0FBA3E0FAA3E0F9A3E0F5C2
:103CA1008275830012120CFF9002F1E0FD9002F682
:103CB100E0F582758300E92582F9E5833AFAC3E9E3
:103CC1009DF9EA9400FAEF1212399002F6E004F03D
:023CD10080A5CC
:013CD30022CE
:0B4ADE00900348EBF0A3EAF0A3E9F01E
:104AE900E4FE1211F3FD0EEEC39F5018900348E047
:104AF900FBA3E0FAA3E0F98E8275830012120C2D54
:064B0900FD0E80E3AF0584
:014B0F002283
:0E49D50090033BEFF0A3EBF0A3EAF0A3E9F0B0
:1049E300E4FF1211F3FE0F90033BE0FDEFC39D5074
:1049F30016A3E0FBA3E0FAA3E0F98F82758300120C
:094A0300120C6EFE0F80E0AF06FC
:014A0C002287
:0B4B100090034BEBF0A3EAF0A3E9F0E8
:104B1B00E4FEEEC39F501F90034BE0FBA3E0FAA310
:104B2B00E0F98E8275830012120CF48E827583006D
:064B3B0012124B0E80DC9B
:014B41002251
:10441A009002991213A590029DE0FCA3E0FDA3E08F
:10442A00FEA3E0FF900299E0F8A3E0F9A3E0FAA363
:10443A00E0FBD312131E401590029DA3A3E0FAA33A
:10444A00E0FB900299A3A3E0FEA3E08012900299F8
:10445A00A3A3E0FAA3E0FBA3A3A3E0FEA3E0C39B0C
:05446A00FFEE9AFE22A6
:100B0D0000000000000000000000000000000000D8
:100B1D00000038FCFC3800000000000D0D00000046
:100B2D00000E1E00001E0E00000000000000000060
:100B3D0020F8F820F8F82000020F0F020F0F020026
:100B4D00387C444747CC9800060C0838380F07000E
:100B5D0030300080C06030000C060301000C0C002A
:100B6D0080D87CE4BCD84000070F0808070F0800A8
:100B7D0000101E0E0000000000000000000000002C
:100B8D000000F0F80C040000000003070C08000042
:100B9D000000040CF8F000000000080C0703000032
:100BAD0080A0E0C0C0E0A0800002030101030200AC
:100BBD00008080E0E0808000000000030300000062
:100BCD0000000000000000000000101E0E000000DC
:100BDD008080808080808000000000000000000088
:100BED0000000000000000000000000C0C000000E0
:100BFD0000000080C06030000C0603010000000002
:100C0D00F8F80CC40CF8F00003070C080C070300EF
:100C1D00001018FCFC0000000008080F0F08080069
:100C2D00080C84C4643C18000E0F0908080C0C0055
:100C3D00080C444444FCB800040C0808080F0700D5
:100C4D00C0E0B098FCFC8000000000080F0F080009
:100C5D007C7C444444C48400040C0808080F07003D
:100C6D00F0F84C4444C08000070F0808080F070037
:100C7D000C0C0484C47C3C0000000F0F000000002D
:100C8D00B8FC444444FCB800070F0808080F0700DF
:100C9D00387C444444FCF800000808080C070300A5
:100CAD0000000030300000000000000606000000CB
:100CBD0000000030300000000000080E06000000AB
:100CCD000080C0603018080000000103060C080009
:100CDD000020202020202000000101010101010041
:100CED000008183060C0800000080C0603010000E9
:100CFD00181C04C4E43C18000000000D0D00000099
:100D0D00F0F008C8C8F8F000070F080B0B0B010036
:100D1D00E0F0988C98F0E0000F0F0000000F0F002E
:100D2D0004FCFC4444FCB800080F0F08080F070032
:100D3D00F0F80C04040C180003070C08080C06004E
:100D4D0004FCFC040CF8F000080F0F080C0703005E
:100D5D0004FCFC44E40C1C00080F0F08080C0E00EA
:100D6D0004FCFC44E40C1C00080F0F0800000000FC
:100D7D00F0F80C84848C980003070C0808070F000A
:100D8D00FCFC404040FCFC000F0F0000000F0F006A
:100D9D00000004FCFC0400000000080F0F08000018
:100DAD0000000004FCFC0400070F08080F070000FA
:100DBD0004FCFCC0E03C1C00080F0F00010F0E00EE
:100DCD0004FCFC0400000000080F0F08080C0E00C6
:100DDD00FCFC387038FCFC000F0F0000000F0F00FA
:100DED00FCFC3870E0FCFC000F0F0000000F0F0042
:100DFD00F8FC040404FCF800070F0808080F0700AE
:100E0D0004FCFC44447C3800080F0F08000000006F
:100E1D00F8FC040404FCF800070F080E3C3F270003
:100E2D0004FCFC44C4FC3800080F0F00000F0F0039
:100E3D00183C6444C49C1800060E0808080F0700EF
:100E4D00001C0CFCFC0C1C000000080F0F0800001F
:100E5D00FCFC000000FCFC00070F0808080F070051
:100E6D00FCFC000000FCFC000103060C0603010065
:100E7D00FCFC000000FCFC00070F0E030E0F07002A
:100E8D000C3CF0E0F03C0C000C0F0301030F0C00C8
:100E9D00000C7CC0C07C3C000000080F0F08000057
:100EAD001C0C84C4643C1C000E0F0908080C0E00B9
:100EBD000000FCFC0404000000000F0F08080000F7
:100ECD003870E0C0800000000000000103070E0034
:100EDD0000000404FCFC0000000008080F0F0000D7
:100EED00080C0603060C08000000000000000000BE
:100EFD0000000000000000002020202020202020E5
:100F0D0000000307040000000000000000000000C6
:100F1D0000A0A0A0E0C00000070F0808070F080000
:100F2D0004FCFC2060C08000000F0F08080F0700B4
:100F3D00C0E0202020604000070F0808080C0400C6
:100F4D0080C06024FCFC0000070F0808070F080094
:100F5D00C0E0A0A0A0E0C000070F0808080C040026
:100F6D0040F8FC440C180000080F0F0800000000AA
:100F7D00C0E02020C0E02000276F48487F3F0000E0
:100F8D0004FCFC4020E0C000080F0F00000F0F0014
:100F9D00000020ECEC0000000000080F0F0800001E
:100FAD000000000020ECEC0000307040407F3F005E
:100FBD0004FCFC80C0602000080F0F01030E0C0024
:100FCD00000004FCFC0000000000080F0F080000EA
:100FDD00E0E060C060E0C0000F0F0007000F0F00E1
:100FED0020E0C02020E0C000000F0F00000F0F0018
:100FFD00C0E0202020E0C000070F0808080F070000
:10100D0020E0C02020E0C000407F7F48080F07008F
:10101D00C0E02020C0E02000070F08487F7F40007F
:10102D0020E0C06020E0C000080F0F0800000000A5
:10103D0040E0A02020604000040C09090B0E0400C4
:10104D002020F8FC202000000000070F080C0400F1
:10105D00E0E00000E0E00000070F0808070F0800BF
:10106D0000E0E00000E0E0000003070C0C070300C7
:10107D00E0E0008000E0E000070F0C070C0F070018
:10108D002060C080C0602000080C0703070C08001A
:10109D00E0E0000000E0E000474F4848683F1F00D7
:1010AD00606020A0E06020000C0E0B09080C0C0005
:1010BD00004040F8BC040400000000070F080800C1
:1010CD00000000BCBC0000000000000F0F0000007D
:1010DD00000404BCF84040000008080F07000000A1
:1010ED00080C040C080C04000000000000000000B7
:10008E00BCBCC4DCB4F3C8FCB5E3D5F3CFD4CABE54
:10009E00CAB5D1E9C4A3C4E2B4ABB8D0C6F7BFD5D4
:1000AE00C6F8D6CAC1BFBFC9C8BCC6F8B9E2C3F448
:1000BE00C8CBCCE5BAECCDE2B5E7D1B9B1EDBFAA6C
:1000CE00BBFACAB1BCE4CAB1B7D6C3EBCEE4BABA76
:1000DE00CEA8D6DAD6C7B4B4BFC6BCBCD3D0CFDE9A
:1000EE00B9ABCBBEC8D9D2ABB4B4D4ECBEA3D6DDBB
:1000FE00D6B0D2B5BCBCCAF5D1A7D4BAD5E2CAC760
:10010E00B0B4BCFCBFCDBBA7B6CBCFD6D4DAC2CC75
:10011E00B5C6BDFBD6B9CDA8D0D0D4CAD0ED00108F
:10012E001010FF109008888888FF888888080004BF
:10013E0044827F01808040432C1028468180000835
:10014E00CC4A49484ACC18007F88888482E0000057
:10015E00FF121252927F00007E88888482E0002077
:10016E00202020202020FF20202020202020008062
:10017E00804020100C0300030C102040808000886B
:10018E0086A2AAAAFEAAABAAFEAAAAA28A860008DC
:10019E00080482BF42221E2242BF02040808000049
:1001AE0000C04040407F48484848C80808000080CA
:1001BE00403704041464041464040710E0000000C3
:1001CE00FE0222DA0608C8B88FE888888808000080
:1001DE00FF0810080708080808FF080808080000AC
:1001EE000000FE92929292929292FE0000000040C7
:1001FE00424458407F4040407F4050484640004077
:10020E00404242424242C2424242424240400020AA
:10021E001008060040807F00000002040830001025
:10022E000C048414640506F404040404140C000481
:10023E008484444724140C070C14244484040002C0
:10024E00FA8282FE804020504C434C5020400008E1
:10025E00184884443F404458414E6058474000106F
:10026E0010D0FF9014E4AFA4A4A4AFE404000004E3
:10027E000300FF00894B2A1A0E1A2A4B88800010A1
:10028E001010FF9000F80002041800FF000000029A
:10029E0042817F00003F108840300C0B30C00000C0
:1002AE008060F807404848E85F48484840400001F1
:1002BE000000FF0000020B1222D20A06000000000E
:1002CE0000FC04D4545454D4047F84C536040088EE
:1002DE0066010063828292AB8482C10224CF0080C9
:1002EE00809E9292929EE0809EB2D2929E80000854
:1002FE0008F4949292F10001F2929494F80800108E
:10030E000C4424140405060404142444140C0000A4
:10031E004040414141417F41414141404000002028
:10032E00104C4754545454545454D40404000000F4
:10033E00000000000000000000000F3040F0000040
:10034E0000FE121292929292FF9191919110008062
:10035E00601F80805F4020100E1010205F800020F4
:10036E002020BEAAAAAAAAAAAAAABE2020200000BD
:10037E008080AFAAAAAAFFAAAAAAAF808000000016
:10038E000202F2121212F2020202FE020202000037
:10039E0000000F0404040F0040807F000000008066
:1003AE007000FF10289827C43C907F901214008094
:1003BE006018070898640328C621C01126C80020BB
:1003CE00104C4754545454545454D4040400000054
:1003DE00000000000000000000000F3040F0004060
:1003EE0040424458C0407F40C05048464040008084
:1003FE0080402018070000003F4040404078000831
:10040E00F714549414F40480708F0808F808001D33
:10041E0013115599513F914120130C334080000028
:10042E000000000000C03FC000000000000000807F
:10043E004020100C03000000030C10204080000030
:10044E008060F807101010D0FFD0101010000001BF
:10045E000000FF1008040B08FF080B040810002012
:10046E0030AC63201800040404FC040404000022D1
:10047E006722121212404040407F40404040000030
:10048E00C0301F1010F00000FF20408000000081DF
:10049E004021120C03000000FF00000003000000CA
:1004AE0000F888888888FF88888888F8000000000F
:1004BE00001F080808087F888888889F80F0000041
:1004CE0000FE0282828282FA828282828202008010
:1004DE00601F40404040407F404044584040000034
:1004EE00042424242424FF2424242424040000216E
:1004FE00211109FD83412305091129254141008060
:10050E00828282FE8282828282FE828282800000CB
:10051E008040300F0000000000FF000000000010BF
:10052E0010D0FF901000FE020202FE000000000438
:10053E000300FF0083601F0000003F404078000072
:10054E00FC848484FC001010101010FF10100000AA
:10055E003F1010103F0000010640807F0000000099
:10056E00F8010600F0121212F2020202FE00000062
:10057E00FF0000001F1111111F0040807F000000BE
:10058E00FC848484FC001010101010FF101000006A
:10059E003F1010103F0000010640807F00000080D9
:1005AE004020908886808080838C102040800000C0
:1005BE008040201807004080403F000000000024CB
:1005CE0024A4FE232200C03800FF0008106000089B
:1005DE000601FF01068180404027100C0300002019
:1005EE0020242424A4242420FF20222C2020004078
:1005FE00C07E40403F222220030C102040F8001005
:10060E0060020CC0021EE2020202E21E00000004A2
:10061E00047C0380804020130C1320408080000057
:10062E00FC0404FC4020F84F4849FA4848080000F2
:10063E000F04040F0000FF2222223F2222200080FE
:10064E00804020D00804030408D020408080008021
:10065E004020180708B040201807182040800010CE
:10066E009453321E325210007E4242427E000000EF
:10067E000000FF49494949494949FF00000000402F
:10068E0020D04C4344C8102000F80000FF000000AA
:10069E00003F404448474070000F40807F000024D8
:1006AE0024A4FEA3220022CC0000FF0000000008BC
:1006BE000601FF00010404040404FF0202020010FC
:1006CE001010FF109008888888FF8888880800041A
:1006DE0044827F01808040432C1028468180000494
:1006EE00040484E43C2724242424E40404040004A5
:1006FE00020100FF0909090949897F000000000075
:10070E00FE225A8600FE9292929292FE0000000005
:10071E00FF04080700FF4020030C14224140000094
:10072E00804020180680000718204080000000013D
:10073E0000207028262120202438600001010000AE
:10074E001012929292929292121202FE00000000E9
:10075E0000003F101010103F0040807F000000840A
:10076E006424242F2424A424242F2424A4640040AD
:10077E00422222120A06FF060A1222224240004498
:10078E0058C07FD048002A12BE002A923E00008038
:10079E00601F007F201402FF55557F5555410040C4
:1007AE0020D04C4344C8102000F80000FF00000089
:1007BE00003F404448474070000F40807F0000409B
:1007CE004042CC00282624243F242424200000006C
:1007DE0040201F20405F49494949495F404000047D
:1007EE002424EF2424EF242404F80000FF000082C8
:1007FE0042320F0202FF0202020F40807F00000011
:10080E00E000FF0020C000FE0020C000FF000081BD
:10081E0040300F000000003F00000000FF0000020B
:10082E0002FE9292FE0202FC04040404FC00000884
:10083E00180F0804FF0480631901010933C000007A
:10084E0010608000FF000000FF0000C0300000407C
:10085E00404043407F4040407F4241404040001076
:10086E001010FF109008888888FF88888808000478
:10087E0044827F01808040432C10284681800000F6
:10088E0010101010D030FF30D0121C1010000010BD
:10089E00080402010000FF000001020408100040DD
:1008AE0030119690909196909098141350300004B9
:1008BE000404040444847E060504040404040000B5
:1008CE00FE225A86100C242425262424140C000003
:1008DE00FF0408078041310F01013F414171004083
:1008EE004042CC00082848890EC83808080000008D
:1008FE0040201F205048444241424458404000008E
:10090E0000007F494949494949497F00000000815B
:10091E0041211D214181FF898989898981810010A9
:10092E001010FF9020988888E98E8888A898000279
:10093E0042817F000080844B2810284780000040B1
:10094E0030EF242480E49C105454FF547C1000019A
:10095E00017F21512618274445455F454544001027
:10096E000C8444B4A4252624A4642404140C00048A
:10097E000404FA4A4A4949494A4AFA04040400005E
:10098E000000F80808090E08080808F80000000022
:10099E0080601F010101010101010103000000C877
:1009AE0008090EE808405E5050DF50505E400020AF
:1009BE006F201C131000FE027F027E82FE000004D8
:1009CE008484FC848400FE0202F20202FE000020F7
:1009DE0060201F109040231806017E8083E00008DF
:1009EE000888C8380C0B0808E80808080808000230
:1009FE000100FF40414141417F41414141400020C2
:100A0E0030AC633000809292929292FE80800022EF
:100A1E006722121200221448847F040814220080D8
:100A2E007000FF201004040404FC0404040400807D
:100A3E006018070830000040807F00000000004072
:100A4E004424147F14240024147F142444400008EA
:100A5E00884929094989790909092949880800001D
:100A6E000000F0000000FF40404040400000004009
:100A7E0040407F4040407F4040404040404000402A
:100A8E0042CC0000E2222A2AF22A2622E00000802E
:100A9E00403F4080FF898989BF89A9C9BF80000076
:100AAE001088C4330040424242C2424242400002D9
:100ABE000100FF0000000040807F000000000000E9
:100ACE0000406050C8444340C85060C000000080E1
:100ADE0080402018070000007F80808080F000405A
:100AEE004042CC000020180F08F80808080000004B
:0F0AFE0000007F201001010101FF010101010033
:03000000023AC2FF
:0C3AC200787FE4F6D8FD758121023B09F5
:1010FD00E709F608DFFA8046E709F208DFFA803ED5
:10110D0088828C83E709F0A3DFFA8032E309F608C1
:10111D00DFFA8078E309F208DFFA807088828C8329
:10112D00E309F0A3DFFA806489828A83E0A3F608DD
:10113D00DFFA805889828A83E0A3F208DFFA804CB7
:10114D0080D280FA80C680D4806980F2803380108E
:10115D0080A680EA809A80A880DA80E280CA8033F7
:10116D0089828A83ECFAE493A3C8C582C8CCC5836F
:10117D00CCF0A3C8C582C8CCC583CCDFE9DEE7803F
:10118D000D89828A83E493A3F608DFF9ECFAA9F0BE
:10119D00EDFB2289828A83ECFAE0A3C8C582C8CC14
:1011AD00C583CCF0A3C8C582C8CCC583CCDFEADE2D
:1011BD00E880DB89828A83E493A3F208DFF980CC8F
:1011CD0088F0EF60010E4E60C388F0ED2402B40488
:1011DD000050B9F582EB2402B4040050AF2323452F
:0611ED00822390114D73F6
:1011F300BB010689828A83E0225002E722BBFE02FA
:09120300E32289828A83E493222C
:10120C00BB010CE58229F582E5833AF583E0225097
:10121C0006E92582F8E622BBFE06E92582F8E222E1
:0D122C00E58229F582E5833AF583E49322FB
:10123900BB010689828A83F0225002F722BBFE0194
:02124900F3228E
:10124B00F8BB010DE58229F582E5833AF583E8F0D9
:10125B00225006E92582C8F622BBFE05E92582C885
:02126B00F2226D
:10126D00C2D5EC30E709B2D5E4C39DFDE49CFCEE9C
:10127D0030E715B2D5E4C39FFFE49EFE12140EC3F2
:10128D00E49DFDE49CFC800312140E30D507C3E4ED
:06129D009FFFE49EFE220B
:1012A300C5F0F8A3E028F0C5F0F8E58215827002D6
:0612B3001583E038F02273
:1012B900A3F8E0C5F025F0F0E582158270021583E8
:0612C900E0C838F0E82245
:1012CF00E88FF0A4CC8BF0A42CFCE98EF0A42CFCBE
:1012DF008AF0EDA42CFCEA8EF0A4CDA8F08BF0A43C
:1012EF002DCC3825F0FDE98FF0A42CCD35F0FCEB9B
:1012FF008EF0A4FEA9F0EB8FF0A4CFC5F02ECD3960
:0F130F00FEE43CFCEAA42DCE35F0FDE43CFC22CC
:10131E00EB9FF5F0EA9E42F0E99D42F0EC6480C846
:06132E0064809845F022E6
:10133400EB9FF5F0EA9E42F0E99D42F0E89C45F00F
:011344002286
:10134500E8600FECC313FCED13FDEE13FEEF13FF86
:03135500D8F122AA
:10135800E8600FEFC333FFEE33FEED33FDEC33FCF3
:03136800D8F12297
:10136B00BB010789828A830213A55005E9F8021491
:0A137B0099BBFE05E9F80214A52253
:10138500BB010789828A830214705005E9F80214AB
:1013950063BBFE05E9F802147C89828A83021489FD
:0C13A500ECF0A3EDF0A3EEF0A3EFF022BB
:1013B100A8828583F0D083D0821213C81213C81279
:1013C10013C81213C8E473E493A3C583C5F0C5839E
:1013D100C8C582C8F0A3C583C5F0C583C8C582C886
:0113E10022E9
:103BD700900084EBF0A3EAF0A3E9F0900087E0FB04
:103BE700A3E0FAA3E0F91211F3FE900084E0FBA32F
:103BF700E0FAA3E0F91211F3FF6E702AEF600E905E
:103C0700008A74FFF5F01212A345F070037F0022BB
:103C1700900085E475F0011212A3900088E475F016
:103C2700011212A380B5900084E0FBA3E0FAA3E0A1
:103C3700F91211F3FDD3EE6480F8ED648098400328
:103C47007F0122900087E0FBA3E0FAA3E0F91211BD
:073C5700F3FFC3ED9FFF2204
:1040BD0090008EEBF0A3EAF0A3E9F0E4900096F007
:1040CD00A3F090009474FFF5F01212B945F0603C26
:1040DD00900091E0FBA3E0FAA3E0F91211F3FF9039
:1040ED00008EE0FBA3E0FAA3E0F9900096E475F0F2
:1040FD00011212B985F082F583EF12124BEF60C2F7
:10410D00900092E475F0011212A380B690008EE03B
:08411D00FBA3E0FAA3E0F92284
:10000E00E4FFFE1211F3600C0FEF70010E09E970A0
:05001E00F20A80EF2250
:1013E200EF4E6012EF60010EEDBB010B89828A8322
:1013F200F0A3DFFCDEFA2289F05007F709DFFCA92F
:0C140200F022BBFEFCF309DFFCA9F02285
:1047C6009000B4E0FFA3E0FEA3E0CF9000BDF0A30D
:1047D600EEF0A3EFF09000B7E0CBF0A3E0CAF0A3B1
:1047E600E0C9F07F229000C0AD82AC831211F38D38
:1047F600828C83F0A309E970010ADFEC9000B7E030
:0A480600FBA3E0FAA3E0F902155C41
:103ACE00021D05E493A3F8E493A34003F68001F2EC
:103ADE0008DFF48029E493A3F85407240CC8C333F9
:103AEE00C4540F4420C8834004F456800146F6DFC8
:103AFE00E4800B01020408102040809026E3E47E4F
:103B0E00019360BCA3FF543F30E509541FFEE493BC
:103B1E00A360010ECF54C025E060A840B8E493A383
:103B2E00FAE493A3F8E493A3C8C582C8CAC583CAAE
:103B3E00F0A3C8C582C8CAC583CADFE9DEE780BE66
:0127EC0000EC
:10140E00BC000BBE0029EF8DF084FFADF022E4CCC2
:10141E00F875F008EF2FFFEE33FEEC33FCEE9DEC8B
:10142E00984005FCEE9DFE0FD5F0E9E4CEFD22EDD1
:10143E00F8F5F0EE8420D21CFEADF075F008EF2F1B
:10144E00FFED33FD4007985006D5F0F222C398FD0C
:05145E000FD5F0EA22A9
:0D146300E6FB08E6F908E6FA08E6CBF822F9
:0C147000E0F8A3E0F9A3E0FAA3E0FB22FF
:0D147C00E2FB08E2F908E2FA08E2CBF822F0
:10148900E493F8740193F9740293FA740393FB22B9
:0C149900ECF608EDF608EEF608EFF6227F
:0C14A500ECF208EDF208EEF208EFF22283
:1014F700E51024BDF582E43400F583E00510229061
:1015070000BA3007039000BDE475F0011214B10270
:1015170011F32000E97F2ED2008018EF540F24909A
:10152700D43440D4FF30040BEF24BFB41A00500367
:101537002461FFE511600215110514E51470020519
:101547001330070E9000BAE475F0011214B1EF02E0
:101557001239024C537403D2078003E4C207F51013
:101567009000BA1214C8E4F511F513F514E51160EB
:10157700077F2012153A80F57512FFC201C200C21B
:1015870002C203C205C206C208121506FF700D305B
:1015970007057F0012154BAF14AE1322B4255FC2A7
:1015A700D5C204121506FF24D0B40A00501A75F0EC
:1015B7000A781130D50508B6FF0106C6A426F6201D
:1015C700D5047002D20380D924CFB41A00EF500497
:1015D700C2E5D20402174CD20180C6D20080C0D225
:1015E7000280BCD2D580BAD20580B47F2012153ACA
:1015F7002002077401B5110040F11214F7FF12150C
:101607003A021574D208D20680951214F7FB121409
:10161700F7FA1214F7F94A4B7006791D7A187BFF0F
:1016270020022EE511602A7E008E82758300121239
:101637000C60060EEE651270F0C2D5EBC0E0EAC092
:10164700E0E9C0E0EE121793D0E0F9D0E0FAD0E07D
:10165700FB1211F3FF60AAEBC0E0EAC0E0E9C0E0CB
:1016670012153AD0E02401F9D0E03400FAD0E0FBBB
:10167700E5120460DCD512D980877BFF7A17798F52
:10168700D202809C791080027908C206C2088008BD
:10169700D2D5790A8004790AC2D5E512047002F519
:1016A70012E4FAFDFEFF1214F7FC7B082001131267
:1016B70014F7FD7B1030000A1214F7FE1214F7FF1F
:1016C7007B20EC3382D592D55013C3E43000069FBC
:1016D700FFE49EFEE42001039DFDE49CFCE4CBF8BF
:1016E700C201EC700CCFCECDCCE824F8F870F380B3
:1016F70017C3EF33FFEE33FEED33FDEC33FCEB3373
:10170700FB994002FB0FD8E9EB300105F8D0E0C4A4
:1017170048B201C0E00AEC4D4E4F78207B0070C202
:10172700EAB5120040BCC0E0121795D0F0D0E02017
:101737000104C4C0E0C4B201C0F0121523D0F0D533
:10174700F0EB0215741214D1161153168B5815E2CB
:101757004C15DE42168F4F16974416974915F743D7
:08176700169D551681461681FE
:10176F0045168147183D5015E62D15EA2E160D2BFF
:10177F0015EE23160B2018262A15A648000016056D
:10178F003F3F3F00790AA2D5200314300509B91055
:10179F00020404B9080104A2D52006025001042056
:1017AF0002689202B511005034C0E07F2030031957
:1017BF007F30A20272067205500F1217ECC202C2DE
:1017CF0006C205C2087F30800F300503E9C0E01262
:1017DF00153A300503D0E0F9D0E0B511CC3005173C
:1017EF007F30B9100C12153A7F583004077F78807C
:1017FF0003B9080312153A3002057F2D02153A7FFF
:10180F00202008F87F2B2006F322920280CF286E2B
:10181F00756C6C2900D2011214F73001F8C20178EF
:10182F001130D50108F60215A62D50434958121450
:10183F00F72403B405004001E49018389312152BD8
:0D184F00743A12152BD20375110402168B8A
:1014B100F8E0FBA3A3E0F925F0F0E58215827002C4
:0714C1001583E0FA38F02268
:0914C800EBF0A3EAF0A3E9F02225
:1014D100D083D082F8E4937012740193700DA3A3AA
:1014E10093F8740193F5828883E4737402936860BE
:0614F100EFA3A3A380DFBE
:104C5300EFB40A07740D124C5E740A309811A899C8
:104C6300B8130CC2983098FDA899C298B811F630C1
:074C730099FDC299F5992299
:00000001FF
